:020000040800F2
:106000009809002079BC00087DB700087FB7000818
:1060100081B7000883B7000885B7000800000000BA
:1060200000000000000000000000000087B700082A
:1060300089B70008000000008BB700088DB7000882
:10604000A5BC0008A9BC0008ADBC0008B1BC000894
:10605000B5BC0008B9BC0008BDBC0008C1BC000844
:10606000C5BC0008C9BC0008CDBC0008D1BC0008F4
:10607000D5BC0008D9BC0008DDBC0008E1BC0008A4
:10608000E5BC0008E9BC0008EDBC000899B70008B1
:10609000A3B70008F1BC0008F5BC0008F9BC000873
:1060A000FDBC000801BD000805BD000809BD0008D1
:1060B0000DBD0008ADB7000811BD000815BD0008F2
:1060C00019BD00081DBD000821BD000825BD000840
:1060D00029BD00082DBD000831BD000835BD0008F0
:1060E00039BD00083DBD000849B8000838B50400B6
:1060F00000252078C00740F1D480DFF8A0090068AF
:1061000010F00C0004280BD0DFF89009006810F0A4
:106110000C0008282AD1DFF884090068C00325D5BF
:106120004FF48040B0FA80F050F02000C0B2400937
:10613000C0B2012803D1DFF86809006806E04FF417
:106140008040B0FA80F0DFF8640900684FF48041C5
:10615000B1FA81F111F01F01C840C00740F1A180E0
:106160006068002840F09D80012033E36068B0F54E
:10617000803F08D1DFF82809006850F48030DFF84C
:106180002019086038E06068002810D1DFF8100995
:10619000006830F48030DFF808190860DFF8000983
:1061A000006830F48020DFF8F818086024E06068A8
:1061B000B0F5A02F10D1DFF8E808006850F4802077
:1061C000DFF8DC180860DFF8D808006850F4803089
:1061D000DFF8CC1808600FE0DFF8C408006830F47E
:1061E0008030DFF8BC180860DFF8B408006830F4CD
:1061F0008020DFF8AC1808606068002828D000F024
:1062000096FC05004FF48040B0FA80F050F020007A
:10621000C0B24009C0B2012803D1DFF88408006889
:1062200006E04FF48040B0FA80F0DFF880080068A4
:106230004FF48041B1FA81F111F01F01C840C0074D
:106240002FD400F074FC401B6528DBD30320C1E28F
:1062500000F06DFC05004FF48040B0FA80F050F083
:106260002000C0B24009C0B2012803D1DFF83008D5
:10627000006806E04FF48040B0FA80F0DFF82C08A8
:1062800000684FF48041B1FA81F111F01F01C8405C
:10629000C00706D500F04BFC401B6528DBD303206C
:1062A00098E22078800745D5DFF8F007006810F005
:1062B0000C0F0BD0DFF8E407006810F00C00082882
:1062C00068D1DFF8D8070068C00363D45FF080406E
:1062D000B0FA80F050F02000C0B24009C0B20128EE
:1062E00003D1DFF8BC07006806E05FF08040B0FA39
:1062F00080F0DFF8B80700685FF08041B1FA81F103
:1063000011F01F01C840C00704D52069012801D041
:1063100001205FE2DFF8880700685FF0F851B1FA0A
:1063200081F130F0F800626912FA01F10843DFF8F8
:10633000701708602078000740F1A880A069002845
:1063400000F0CE8001205FF00041B1FA81F1DFF86A
:10635000602742F8210000F0EAFB05005FF0804072
:10636000B0FA80F05FF08040B0FA80F0DFF83C07D0
:1063700000685FF08041B1FA81F111F01F01C8405F
:10638000C00700F1808000F0D2FB401B0328E5D35A
:1063900003201FE22069002842D001205FF0004165
:1063A000B1FA81F1DFF80C2742F8210000F0BFFBC1
:1063B00005005FF08040B0FA80F050F02000C0B2DD
:1063C0004009C0B2012803D1DFF8D406006806E016
:1063D0005FF08040B0FA80F0DFF8D00600685FF030
:1063E0008041B1FA81F111F01F01C840C00706D405
:1063F00000F09DFB401B0328DBD30320EAE1DFF81C
:10640000A00600685FF0F851B1FA81F130F0F800B1
:10641000626912FA01F10843DFF88416086089E71F
:1064200000205FF00041B1FA81F1DFF8882642F8E0
:10643000210000F07CFB05005FF08040B0FA80F0A6
:1064400050F02000C0B24009C0B2012803D1DFF8EB
:106450005006006806E05FF08040B0FA80F0DFF898
:106460004C0600685FF08041B1FA81F111F01F0124
:10647000C840C0077FF55EAF00F059FB401B032802
:10648000DAD30320A6E1012000F054FB2078400776
:1064900040F1EA80DFF82006006850F08050DFF815
:1064A00018160860DFF81006006810F080500090A1
:1064B0000098DFF80806006850F48070DFF8FC15DB
:1064C000086000F034FB0500DFF8F0050068C00547
:1064D0002DD400F02CFB401B6528F5D3032079E177
:1064E00000205FF00041B1FA81F1DFF8C42542F8E5
:1064F000210000F01CFB05005FF08040B0FA80F046
:106500005FF08040B0FA80F0DFF8A00500685FF02F
:106510008041B1FA81F111F01F01C840C007B5D523
:1065200000F005FB401B0328E6D3032052E1E0689E
:10653000012808D1DFF88805006850F00100DFF875
:106540008015086037E0E068002810D1DFF870059A
:10655000006840084000DFF868150860DFF8600553
:10656000006830F00400DFF85815086023E0E068A8
:10657000052810D1DFF84805006850F00400DFF866
:1065800040150860DFF83805006850F00100DFF8BA
:10659000301508600FE0DFF828050068400840006B
:1065A000DFF81C150860DFF81805006830F00400FB
:1065B000DFF80C150860E06800282AD000F0B7FA70
:1065C00005005FF08040B0FA80F05FF08040B0FAE4
:1065D00080F050F04000C0B24009C0B2022803D1A0
:1065E000DFF8DC04006802E0DFF8C00400685FF058
:1065F0008041B1FA81F111F01F01C840C00733D4C6
:1066000000F095FA401B41F289318842D9D303202A
:10661000E0E000F08CFA05005FF08040B0FA80F016
:106620005FF08040B0FA80F050F04000C0B2400906
:10663000C0B2022803D1DFF88804006802E0DFF866
:106640006C0400685FF08041B1FA81F111F01F0124
:10665000C840C00708D500F06AFA401B41F28931F2
:106660008842D9D30320B5E0E069002800F0B1806A
:10667000DFF82804006810F00C00082800F0A7805C
:10668000E069022875D100208021B1FA81F1DFF89C
:10669000242442F8210000F04AFA05004020B0FA14
:1066A00080F050F02000C0B24009C0B2012803D1F0
:1066B000DFF8EC03006805E04020B0FA80F0DFF876
:1066C000EC0300684021B1FA81F111F01F01C840CC
:1066D000C00706D500F02BFA401B0328DED30320A9
:1066E00078E0206AB0F5803F09D1DFF8B003006898
:1066F00030F40030A1680843DFF8A0130860DFF829
:106700009C03006830F47410216A0843616A0843EE
:10671000DFF88813086001208021B1FA81F1DFF8E9
:10672000942342F8210000F002FA05004020B0FA5C
:1067300080F050F02000C0B24009C0B2012803D15F
:10674000DFF85C03006805E04020B0FA80F0DFF875
:106750005C0300684021B1FA81F111F01F01C840CB
:10676000C00736D400F0E3F9401B0328DED3032032
:1067700030E000208021B1FA81F1DFF8382342F8BF
:10678000210000F0D4F905004020B0FA80F050F06C
:106790002000C0B24009C0B2012803D1DFF80003D5
:1067A000006805E04020B0FA80F0DFF800030068E0
:1067B0004021B1FA81F111F01F01C840C00708D58E
:1067C00000F0B5F9401B0328DED3032002E00120CE
:1067D00000E0002032BD70B504000D000026DFF897
:1067E000E402006810F00700A84211D2DFF8D402DA
:1067F0000068C008C0002843DFF8C8120860DFF84E
:10680000C402006810F00700A84201D00120F4E0A3
:106810002078800709D5DFF88402006830F0F000A6
:10682000A1680843DFF8741208602078C00740F1BF
:10683000A4806068012820D14FF48040B0FA80F035
:1068400050F02000C0B24009C0B2012803D1DFF8E7
:106850005002006806E04FF48040B0FA80F0DFF8A4
:106860004C0200684FF48041B1FA81F111F01F0130
:10687000C840C00743D40120BFE0606802281DD192
:106880004020B0FA80F050F02000C0B24009C0B201
:10689000012803D1DFF80802006805E04020B0FAC3
:1068A00080F0DFF8080200684021B1FA81F111F0B0
:1068B0001F01C840C00722D401209EE05FF0804045
:1068C000B0FA80F050F02000C0B24009C0B20128F8
:1068D00003D1DFF8CC01006806E05FF08040B0FA39
:1068E00080F0DFF8C80100685FF08041B1FA81F103
:1068F00011F01F01C840C00701D401207DE0DFF87E
:106900009C01006880088000616808436349086052
:1069100000F00DF90600606801280ED15F4800689C
:1069200010F00C00042828D000F001F9801B41F27F
:1069300089318842F2D303205FE0606802280ED1DB
:106940005648006810F00C00082816D000F0EFF848
:10695000801B41F289318842F2D303204DE04F4839
:10696000006810F00C0F08D000F0E1F8801B41F235
:1069700089318842F3D303203FE05248006810F089
:10698000070085420ED24F480068C008C000284367
:106990004C4908604B48006810F00700A84201D03D
:1069A00001202AE02078400707D53C48006830F4F1
:1069B000E060E1680843394908602078000708D59D
:1069C0003648006830F46050216950EAC10033490C
:1069D000086000F013F8314909685FF07062B2FA9C
:1069E00082F2394B11F0F001D140C95CC8402E4908
:1069F0000860002000F083F8002070BD00B585B06D
:106A000001A83249102200F0B7F831480088ADF8EB
:106A10000000002000200020002100201F48006806
:106A200010F00C01042902D0082902D020E01D48F2
:106A30001FE001A910F470124FF47053B3FA83F3FE
:106A4000DA40515CC0030FD5144800686A4610F460
:106A500000304FF48043B3FA83F3D840805C114A8E
:106A6000B2FBF0F0484302E01A4800FB01F000E0FE
:106A70000C4805B000BD0C480068704780B5FFF7B2
:106A8000FAFF064909685FF4E012B2FA82F2124B8B
:106A900011F46051D140C95CC84002BD04100240ED
:106AA0000010024000127A0018000020241002405A
:106AB00080044242000042421C100240007000402C
:106AC000201002400020024058BC000838BC0008DA
:106AD000926D000800093D0094BC000880B51C4878
:106AE000006850F010001A490860032000F00EF909
:106AF000002000F004F800F04DF9002002BD10B5B0
:106B00000400FFF7B8FF4FF47A71B0FBF1F000F02A
:106B100017F9002221005FF0FF3000F0FBF80020A1
:106B200010BD0C480068401C0A49086070470948BD
:106B30000068704711B581B00024FFF7F8FF04002A
:106B4000FFF7F5FF001B01998842F9D313BD000040
:106B500000200240F013002062B38B0708D0521EC1
:106B600011F8013B00F8013B00F024808B07F6D1BF
:106B7000830740F0208000BF103A07D330B4B1E85B
:106B80003810103AA0E83810F9D230BC530724BFAF
:106B9000B1E80810A0E8081044BF51F8043B40F8E1
:106BA000043BD20724BF31F8022B20F8022B44BF4C
:106BB0000B7803707047083A07D3B1E80810083A19
:106BC00040F8043B40F804CBF7D25307E4E7F0B4B5
:106BD000016844688368091801EB5402E40748BF60
:106BE0004B440C3091422BD011F8014B14F00305AB
:106BF00004BF11F8015BED1C26090F2E07D111F817
:106C0000016B0F3603E011F8017B03F8017B6D1E69
:106C1000F9D1002EE6D0A40811F8015B04F00304BA
:106C2000032C08BF11F8014B05EB04241C1BB51CF9
:106C3000D8D014F8016B03F8016B6D1EF9D1D1E7C0
:106C4000F0BC704710F00701474800684FF6FF029C
:106C50001040464A52EA0121084343490860704700
:106C600041480068C0F302207047012110F01F0264
:106C700091403F4A40B2400942F82010704740B26C
:106C8000002808D509013B4A40B210F00F008018D7
:106C900000F8041C03E00901374A40B281547047F0
:106CA00010B410F00700D0F10703052B01D3042323
:106CB00001E0D0F10703041D072C01D2002000E001
:106CC000C01E012414FA03F35B1E19408140012306
:106CD00013FA00F0401E1040084310BC704780B506
:106CE000411EB1F1807F01D301200EE0401E2349F7
:106CF00008600F215FF0FF30FFF7C1FF002020493F
:106D0000086007201F490860002002BD80B5FFF71A
:106D100099FF01BD70B504000D0016000020FFF7BB
:106D20009FFF32002900FFF7BBFF0100200040B2A7
:106D3000FFF7A5FF70BD80B540B2FFF796FF01BD1C
:106D400080B5FFF7CCFF02BD042806D10D480068CE
:106D500050F004000B49086005E00A48006830F074
:106D600004000849086070470CED00E00000FA05D7
:106D700000E100E018ED00E000E400E014E000E0D5
:106D800018E000E010E000E080B500F001F801BD7F
:106D90007047010280B54848006850F0010046493C
:106DA00008604548006810F001000090009803203A
:106DB000FFF7ACFF002200217FF00B00FFF7AAFFD6
:106DC000002200217FF00A00FFF7A4FF002200212B
:106DD0007FF00900FFF79EFF002200217FF00400F2
:106DE000FFF798FF002200217FF00300FFF792FFDA
:106DF000002200217FF00100FFF78CFF002200211C
:106E00005FF0FF30FFF786FF2C48006830F0E0604D
:106E100050F000702949086001BD00B585B00168D7
:106E2000274A914220D12448006850F480502249DA
:106E300008602148006810F4805000900098A0205D
:106E40000190022002900320049001A91D4800F047
:106E500041F840200190002002900020039001A9F9
:106E6000184800F037F825E000681749884221D11A
:106E70001648006850F480401449086013480068C0
:106E800010F48040009000984FF4204001900220C0
:106E900002900320049001A90D4800F01BF84FF464
:106EA00080400190002002900020039001A9084832
:106EB00000F010F805B000BD1810024004000140B9
:106EC0000030014000080140003800401C10024022
:106ED000000C0140F8B40025002400250022002603
:106EE000002307E0DFF8B8512D6835EA04046C4D43
:106EF0002C605B1C102B80F0C680012414FA03F573
:106F00000C682C40AC42F4D14E68002E27D0012EE4
:106F10001AD0022E1DD0032E2FD0112E16D0122ED5
:106F20001AD0604FBE421AD05F4FBE4217D05F4F9B
:106F3000BE4214D05E4FBE4211D05E4FBE420ED054
:106F40005D4FBE420BD01AE0CA6818E0CA68121D35
:106F500015E0CA68083212E0CA680C320FE08A688D
:106F6000002A01D1042207E08A68012A02D10822FE
:106F7000056101E00822456101E00022FFE7FF2CE6
:106F800001D8050000E0051DFF2C01D89E0002E09D
:106F9000B3F10806B6002F685FF00F0C1CFA06FC70
:106FA00037EA0C0712FA06F63E432E604D68ED00F4
:106FB0009FD5424D2D6855F00105404E35603F4D3F
:106FC0002D6815F001050095009D3D4D9E0855F872
:106FD00026500F2613F00307FFB2BF00BE40B54393
:106FE000384EB04201D100260FE0374EB04201D1F9
:106FF00001260AE0354EB04201D1022605E0344EAA
:10700000B04201D1032600E0042613F00307FFB2CB
:10701000BF00BE4035432A4E9F0846F827504D68B2
:10702000ED0305D52B4D2D6825432A4E356004E030
:10703000284D2D68A543274E35604D68AD0305D515
:10704000254D2D682543244E356004E0224D2D68E2
:10705000A543214E35604D68ED0205D51F4D2D68C5
:1070600025431E4E356004E01C4D2D68A5431B4E84
:1070700035604D68AD027FF535AF094D2D682C4365
:10708000074D2C6035E7F1BC7047D2B2002A02D020
:1070900089B2016102E089B2090401617047000010
:1070A0000C0401400000111000001210000021101B
:1070B00000002210000031100000321018100240B1
:1070C0000800014000080140000C01400010014090
:1070D0000014014000040140040401400804014080
:1070E0000EB4002003B0704700214FF43D41B0F8CA
:1070F00040201143A0F840100020704700214FF4B9
:107100003D41B0F8402032EA0101A0F840100020D3
:107110007047002070470EB40121A0F840100021F4
:10712000A0F840100021A0F844100021A0F8501051
:10713000002003B0704710B4CA78002A05D0022A94
:107140000FD024D3032A16D02DE00A7830F822205D
:1071500048F68F131A4052F400720B7820F823205F
:1071600021E00A7830F8222048F68F131A400B7875
:1071700020F8232017E00A7830F8222048F68F13F1
:107180001A4052F4C0620B7820F823200BE00A78F2
:1071900030F8222048F68F131A4052F480620B78A0
:1071A00020F82320FFE70A7830F8222048F68F7372
:1071B0001A400B781A4342F4004252F080020B78D6
:1071C00020F823208A7A002A40F089804A78002A11
:1071D00030D0B0F850200B7812EBC30210EB420213
:1071E00012F580628B889BB25B089BB25B001360D8
:1071F0000A7830F8222052060CD50A7830F822207E
:1072000048F68F731A4042F4004252F0C0020B78E5
:1072100020F823200A7830F8222048F6BF731A405D
:1072200092F0200242F4004252F08002097820F8E5
:1072300021201DE1B0F850200B7812EBC30210EBB7
:10724000420212F581628B889BB25B089BB25B00A5
:107250001360B0F850200B7812EBC30210EB42021F
:1072600002F20C420B693F2B0CD30B695B090C7CBF
:1072700014F01F0F00D15B1E9B0253F400439BB21E
:10728000136008E00B695B080C7CE40700D55B1C0D
:107290009B029BB213600A7830F8222052040CD56E
:1072A0000A7830F8222048F68F731A4042F44042A0
:1072B00052F080020B7820F823200A7830F8222040
:1072C0004BF68F731A4092F4805292F4005242F4BB
:1072D000004252F08002097820F82120C8E00A78A4
:1072E00030F8222048F68F731A4042F4014252F0DF
:1072F00080020B7820F82320B0F850200B7812EB96
:10730000C30210EB420212F58062CB889BB25B088D
:107310009BB25B001360B0F850200B7812EBC302F5
:1073200010EB420212F581620B899BB25B089BB2A3
:107330005B0013604A78002A4FD10A7830F8222087
:1073400052040CD50A7830F8222048F68F731A4080
:1073500042F4404252F080020B7820F823200A7851
:1073600030F8222052060CD50A7830F8222048F650
:107370008F731A4042F4004252F0C0020B7820F89A
:1073800023200A7830F8222048F68F731A4042F4FE
:10739000004252F0C0020B7820F823200A7830F81F
:1073A00022204BF68F731A4092F4805292F40052CE
:1073B00042F4004252F080020B7820F823200A7831
:1073C00030F8222048F6BF731A4042F4004252F0CF
:1073D0008002097820F821204AE00A7830F822203B
:1073E00052040CD50A7830F8222048F68F731A40E0
:1073F00042F4404252F080020B7820F823200A78B1
:1074000030F8222052060CD50A7830F8222048F6AF
:107410008F731A4042F4004252F0C0020B7820F8F9
:1074200023200A7830F8222048F68F731A4042F45D
:10743000404252F080020B7820F823200A7830F87E
:10744000222048F6BF731A4042F4004252F08002F4
:107450000B7820F823200A7830F822204BF68F731F
:107460001A4042F4004252F08002097820F82120AC
:10747000002010BC70478A7A002A42D14A78002A3C
:107480001FD00A7830F8222052060CD50A7830F83E
:10749000222048F68F731A4042F4004252F0C00294
:1074A0000B7820F823200A7830F8222048F6BF73A2
:1074B0001A4042F4004252F08002097820F821205C
:1074C000B9E00A7830F8222052040CD50A7830F856
:1074D000222048F68F731A4042F4404252F0800254
:1074E0000B7820F823200A7830F822204BF68F738F
:1074F0001A4042F4004252F08002097820F821201C
:1075000099E04A78002A4BD10A7830F822205204B8
:107510000CD50A7830F8222048F68F731A4042F4CE
:10752000404252F080020B7820F823200A7830F88D
:10753000222052060CD50A7830F8222048F68F73A4
:107540001A4042F4004252F0C0020B7820F8232087
:107550000A7830F8222048F68F731A4042F400422D
:1075600052F0C0020B7820F823200A7830F822204D
:107570004BF68F731A4042F4004252F080020B78AF
:1075800020F823200A7830F8222048F6BF731A40EA
:1075900042F4004252F08002097820F821204AE0AB
:1075A0000A7830F8222052040CD50A7830F82220CC
:1075B00048F68F731A4042F4404252F080020B7832
:1075C00020F823200A7830F8222052060CD50A78B9
:1075D00030F8222048F68F731A4042F4004252F0ED
:1075E000C0020B7820F823200A7830F8222048F6D1
:1075F0008F731A4042F4404252F080020B7820F818
:1076000023200A7830F8222048F6BF731A4042F44B
:10761000004252F080020B7820F823200A7830F8DC
:1076200022204BF68F731A4042F4004252F080023F
:10763000097820F821200020704770B504000D0063
:107640000022AE696878012840F0BC802869A969E9
:10765000884204D22E69A869801BA86102E0AE6945
:107660000020A861A87A002810D133009BB2AA8814
:107670006969200000F0D8F9B4F85000297810EBBF
:10768000C10014EB4000C0F8046489E0287834F8A5
:10769000200040062ED5687800281DD1B4F850008F
:1076A000297810EBC10014EB400000F20C403F2E93
:1076B0000AD3710916F01F0F00D1491E890251F437
:1076C000004189B2016013E07108F20700D5491C3E
:1076D000890289B201600BE06878012808D1B4F80A
:1076E0005000297810EBC10014EB4000C0F804648E
:1076F0002A892DE0687800281DD1B4F85000297837
:1077000010EBC10014EB400000F204403F2E0AD3FE
:10771000710916F01F0F00D1491E890251F4004172
:1077200089B2016013E07108F20700D5491C890293
:1077300089B201600BE06878012808D1B4F85000E4
:10774000297810EBC10014EB4000C0F80464EA880B
:1077500033009BB292B26969200000F065F9687845
:1077600000280DD1287834F8200048F68F710840A1
:1077700040F4004050F0C000297824F821000FE0C8
:10778000687801280CD1287834F8200048F68F71E9
:10779000084040F4404050F08000297824F821004F
:1077A000287834F8200048F6BF71084090F01000A7
:1077B00090F0200040F4004050F08000297824F838
:1077C000210097E02869A969884204D22E69A86936
:1077D000801BA86102E0AE690020A861A87A002899
:1077E0001DD1B4F85000297810EBC10014EB400013
:1077F00000F20C403F2E0AD3710916F01F0F00D182
:10780000491E890251F4004189B2016061E07108AA
:10781000F20700D5491C890289B2016059E06878F5
:1078200000281DD1B4F85000297810EBC10014EBEA
:10783000400000F204403F2E0AD3710916F01F0FDA
:1078400000D1491E890251F4004189B2016013E060
:107850007108F20700D5491C890289B201600BE06A
:107860006878012808D1B4F85000297810EBC100DD
:1078700014EB4000C0F80464687800281DD1B4F807
:107880005000297810EBC10014EB400000F20C40CE
:107890003F2E0AD3710916F01F0F00D1491E89022D
:1078A00051F4004189B2016013E07108F20700D57C
:1078B000491C890289B201600BE06878012808D16F
:1078C000B4F85000297810EBC10014EB4000C0F868
:1078D0000464287834F820004BF68F71084090F447
:1078E000805090F4005040F4004050F0800029781F
:1078F00024F82100002070BD0A78002A11D10A78EE
:1079000030F822204BF6BF731A4092F4805292F066
:10791000100242F4004252F08002097820F821203F
:1079200021E04A78002A0FD00A7830F8222048F661
:10793000BF731A4092F0100242F4004252F08002EB
:10794000097820F821200EE00A7830F822204BF642
:107950008F731A4092F4805242F4004252F0800237
:10796000097820F82120002070474A78002A23D087
:107970000A7830F8222052060CD50A7830F82220F6
:1079800048F68F731A4042F4004252F0C0020B785E
:1079900020F823200A7830F8222048F6BF731A40D6
:1079A00092F0100292F0200242F4004252F0800263
:1079B000097820F8212022E00A7830F822205204A9
:1079C0000CD50A7830F8222048F68F731A4042F41A
:1079D000404252F080020B7820F823200A7830F8D9
:1079E00022204BF68F731A4092F4805292F4005288
:1079F00042F4004252F08002097820F82120002051
:107A00007047C9B2002902D18021A0F84C10002093
:107A1000704700207047002070470021B0F84410E4
:107A2000080070470020704770B49BB25B1C5B106D
:107A3000002400250025002692B210EB420010F52C
:107A400080661C0009E00D78491C087855EA00257D
:107A50003580B61CB61C491C641E002CF3D170BCCA
:107A6000704730B49BB25B1C5B100024002592B2BF
:107A700010EB420010F580651C0005E028680880C6
:107A80002D1D491C491C641E002CF7D130BC7047C9
:107A900010B586B004000020002C01D1012078E050
:107AA00094F8E903002805D1002084F8E8032000B9
:107AB00000F060FC032084F8E9032068FFF71EFB58
:107AC000211D83B068462022FFF756F80EBC2068BF
:107AD000FFF706FB00212068FFF71BFB00201DE0DD
:107AE000012114EB401282F8291014EB401181F8A7
:107AF000280014EB40118886002114EB401282F814
:107B00002B10002114EB40129163002114EB401262
:107B1000D163002114EB40121164401C0F28DFD305
:107B2000002020E0002114EB401282F8091214EB2F
:107B3000401181F8080214EB40118886002114EBF3
:107B4000401282F80B12002114EB4012C2F81812F6
:107B5000002114EB4012C2F81C12002114EB401259
:107B6000C2F82012401C0F28DCD3211D83B06846C8
:107B70002022FFF701F80EBC2068FFF7CCFA0020A6
:107B800084F82400012084F8E9032068FFF743FF0C
:107B9000002006B010BD10B5040094F8E8030128D9
:107BA00001D1022010E0012084F8E8030121200027
:107BB00000F0FBFC2068FFF72CFF2068FFF794FA29
:107BC000002084F8E803002010BD10B50400002058
:107BD0002068FFF722FF000402D5200000F0C4F95E
:107BE0002068FFF71AFF40050FD52068B0F8440061
:107BF0004FF6FF3108402168A1F84400200000F052
:107C000000FC0021200000F081F82068FFF705FF4C
:107C1000400408D52068B0F844004BF6FF710840D6
:107C20002168A1F844002068FFF7F7FE800408D51A
:107C30002068B0F844004DF6FF7108402168A1F8B3
:107C400044002068FFF7E9FEC00419D52068B0F8A9
:107C500040004FF6FB7108402168A1F840004FF446
:107C60003D402168A1F84000200000F0EDFB2068B5
:107C7000B0F844004EF6FF7108402168A1F84400B6
:107C80002068FFF7CAFE000520D52068B0F8440040
:107C90004FF2FF7108402168A1F844002068B0F855
:107CA000400050F008002168A1F840002068B0F8BA
:107CB000400050F004002168A1F840002068FFF760
:107CC000ACFEC00402D4200000F0AEFB2068FFF739
:107CD000A4FE80050BD52068B0F844004FF6FF5194
:107CE00008402168A1F84400200000F084FB2068CF
:107CF000FFF793FEC00508D52068B0F844004FF6A2
:107D0000FF6108402168A1F8440010BD10B50400CF
:107D100094F8E803012801D102200CE0012084F846
:107D2000E80384F82410C9B22068FFF76AFE002037
:107D300084F8E803002010BD70B504000025002081
:107D4000C9B2080606D5C9B211F07F0014EB401085
:107D5000283006E0C9B211F07F0014EB401010F596
:107D6000027011F07F060670C9B2C909417092B263
:107D70000261C37094F8E813012901D102200BE0DD
:107D8000012184F8E81301002068FFF7D4F90020EE
:107D900084F8E8032800C0B270BD10B504000020CC
:107DA000C9B2080606D5C9B211F07F0014EB401025
:107DB000283006E0C9B211F07F0014EB401010F536
:107DC000027011F07F020270C9B2C909417094F8C3
:107DD000E813012901D102200AE0012184F8E81307
:107DE00001002068FFF747FB002084F8E80300202B
:107DF00010BD10B504000020C9B211F07F0014EBD3
:107E0000401010F50270426183610022C2610022BD
:107E1000427011F07F02027094F8E823012A01D128
:107E2000022012E0012284F8E8237F22114204D1CB
:107E300001002068FFF701FC03E001002068FFF764
:107E4000FCFB002084F8E803002010BD10B50400FE
:107E50000020C9B211F07F0014EB401028304261BD
:107E600083610022C2610122427011F07F02027020
:107E700094F8E823012A01D1022012E0012284F8BB
:107E8000E8237F22114204D101002068FFF7D5FBCF
:107E900003E001002068FFF7D0FB002084F8E8032E
:107EA000002010BD38B504000D000021EDB22806F9
:107EB00007D5EDB215F07F0014EB401010F128014A
:107EC00004E0EDB214EB451010F50271012088704A
:107ED00015F07F0008702800C0B2C009487094F8FF
:107EE000E803012801D1022011E0012084F8E80311
:107EF0002068FFF701FD7F20054204D114F57B7156
:107F00002068FFF78FFD002084F8E803002032BDD1
:107F100010B504000020C9B2080606D5C9B211F098
:107F20007F0014EB4010283004E0C9B214EB41107C
:107F300010F502700022827011F07F020270C9B247
:107F4000C909417094F8E813012901D102200AE01F
:107F5000012184F8E81301002068FFF706FD0020E6
:107F600084F8E803002010BDF8B5040000250027C0
:107F700000260020ADF802000020ADF800002FE040
:107F80002068008848F60F7108402168088014F1C5
:107F900028052068B0F85000297810EBC10021684E
:107FA00011EB4000D0F804048005800DE861686999
:107FB000E969081868610021200000F011FA94F8BE
:107FC000240000280CD0A869002809D194F82400C6
:107FD00050F080002168A1F84C00002084F82400B3
:107FE0002068B0F84400ADF80200000440F1BF8101
:107FF000BDF8020010F00F06F6B2002E40F08B80A4
:10800000BDF80200C006BBD514F5027520680088D3
:10801000ADF80000BDF80000000520D52068B0F8DC
:108020005000297810EBC100216811EB4000D0F816
:108030000C048005800DE861EB699BB2AA8814F5F9
:108040007B712068FFF70DFD2068008840F68F7176
:10805000084021680880200000F0AEF9C0E7BDF8B4
:1080600000000004BCD52068008840F68F710840ED
:10807000216808802068B0F85000297810EBC10012
:10808000216811EB4000D0F80C048005800DE861F8
:10809000E86900280AD0EB699BB2AA886969206860
:1080A000FFF7DFFC6869E9690818686100212000B2
:1080B00000F08AF92068B0F85000216811EB400008
:1080C00000F20C4029693F290CD3296949092A7C0F
:1080D00012F01F0F00D1491E890251F4004189B2EC
:1080E000016008E0296949082A7CD20700D5491CAB
:1080F000890289B20160206800884BF68F710840C0
:1081000090F4805090F4005040F4004050F0800013
:108110002168088064E72068F6B230F82600ADF8E0
:108120000000BDF80000000440F189802068F6B22C
:1081300030F8260040F68F7108402168F6B221F829
:108140002600F6B214EB461010F50275A87A002846
:1081500017D12068B0F85000297810EBC1002168D1
:1081600011EB4000D0F80C048705BF0DBFB2002F03
:108170004BD03B009BB2AA8869692068FFF771FC6D
:1081800043E02068297830F82100400417D52068A2
:10819000B0F85000297810EBC100216811EB4000C5
:1081A000D0F804048705BF0DBFB2002F1ED03B00DE
:1081B0009BB2EA8869692068FFF753FC16E02068E3
:1081C000B0F85000297810EBC100216811EB400095
:1081D000D0F80C048705BF0DBFB2002F06D03B00BE
:1081E0009BB22A8969692068FFF73BFC20682978DF
:1081F00030F8210048F68F71084040F4004050F0FC
:10820000C00021682A7821F82200E869BFB2381836
:10821000E8616869BFB238186861A869002803D0AE
:10822000BFB22869874204D22978200000F0CCF838
:1082300005E0AB696A6929782000FFF7DAFDBDF82F
:10824000000000067FF5CCAEF6B214EB461010F13C
:1082500028052068F6B230F8260048F60F7108406D
:108260002168F6B221F82600A87A002818D12068E3
:10827000B0F85000297810EBC100216811EB4000E4
:10828000D0F804048005800DE861E86900284DD02D
:10829000EB699BB2AA8869692068FFF7C5FB45E0D6
:1082A0002068297830F82100400618D52068B0F8F9
:1082B0005000297810EBC100216811EB4000D0F884
:1082C00004048005800DE861E86900281FD0EB698F
:1082D0009BB2EA8869692068FFF7A6FB17E020686F
:1082E000B0F85000297810EBC100216811EB400074
:1082F000D0F80C048005800DE861E869002806D0FC
:10830000EB699BB22A8969692068FFF78DFB2068B9
:10831000297830F8210048F68F71084040F4404039
:1083200050F0800021682A7821F822002068B0F8F7
:108330005000297810EBC100216811EB4000D0F803
:1083400004048005800DE8616869E96908186861BE
:10835000A869002804D12978200000F041F83FE600
:10836000AB696A6929782000FFF770FD38E60020C4
:10837000F2BD010280B50068864988421BD186485B
:10838000006850F40000844908608348006810F4D5
:10839000000000900098002200211320FEF7BAFC94
:1083A0001320FEF7C8FC002200211420FEF7B2FCC7
:1083B0001420FEF7C0FC01BD80B510F57B71D0F82C
:1083C0001C0400F036F901BD80B5C9B210EB4112B2
:1083D000D2F81C22C9B2D0F81C0400F05DF901BD2E
:1083E00080B5C9B210EB4112D26BC9B2D0F81C04EF
:1083F00000F097F901BD80B5D0F81C0400F034FA04
:1084000001BD10B504000121A068022801D101219D
:1084100000E00121C9B2D4F81C0400F013FAD4F82A
:108420001C0400F0ECF910BD10B50400D4F81C04D5
:1084300000F00BFAA069002805D05848006850F0F9
:1084400006005649086010BD80B5D0F81C0400F045
:1084500005FA01BD10B504005148C0F81C4450484D
:10846000C4F820024B484E49086008204C49486037
:1084700002204B49886003204949C86000204849D0
:10848000886100204649C861002045490862444887
:10849000FFF7FEFA002801D000F0F0FB18230022BD
:1084A0000021D4F8200200F0EAFB582300228021AA
:1084B000D4F8200200F0E3FB982300228121D4F8B5
:1084C000200200F0DCFBD82300220121D4F8200296
:1084D00000F0D5FB002010BD80B5D0F82002FFF7DA
:1084E0005AFB002002BD10B51C001300DBB22200B5
:1084F00092B2C9B2D0F82002FFF71EFC002010BDD6
:1085000080B5C9B2D0F82002FFF747FC002002BDB9
:1085100080B5C9B2D0F82002FFF7C4FC002002BD2C
:1085200080B5C9B2D0F82002FFF7F2FC002002BDEE
:10853000D0F82002C9B20A0607D5C9B211F07F01EE
:1085400010EB411090F82A0006E0C9B211F07F014B
:1085500010EB411090F80A02704780B5C9B2D0F80C
:108560002002FFF7D3FB002002BD80B59BB2C9B249
:10857000D0F82002FFF76AFC002002BD80B59BB254
:10858000C9B2D0F82002FFF734FC002002BD054834
:1085900070470000005C00401C10024010ED00E03D
:1085A000980900208C1200207047704780B5002881
:1085B00001D1022011E0D0F81432002B02D00023A8
:1085C000C0F81432002901D0C0F81012012180F83F
:1085D000FC110270FFF73EFF002002BD00220029BF
:1085E00003D0C0F81412002200E002221000C0B232
:1085F000704780B5FFF770FF002002BD0020704774
:1086000010B50224D0F81422002A07D0C9B2D0F83D
:10861000142212689047002800D100242000C0B224
:1086200010BD80B5C9B2D0F814225268904700201E
:1086300002BD10B5040014F5027000F0E7FD012042
:10864000C4F8F401B4F80E02C4F8F80194F8080272
:1086500010F01F00C0B2002803D002280DD006D3AE
:1086600011E014F50271200000F02AFB12E014F56D
:108670000271200000F050FB0CE014F502712000A4
:1086800000F070FB06E094F8080210F08001200072
:10869000FFF73EFF002010BD10B5040008001100D8
:1086A000C0B200282BD114F58270D4F8F421032A2B
:1086B00035D1C26883689A420FD28268C368D21AE1
:1086C00082608268C3689A4201D2826800E0C26810
:1086D00092B2200000F011FE21E0D4F814020069EB
:1086E000002808D094F8FC01032804D12000D4F815
:1086F000141209698847200000F008FE0FE0D4F842
:108700001412896900290AD094F8FC11032906D1B2
:108710000100C9B22000D4F81422926990470020C9
:1087200010BD10B504001000C9B2002956D114F1D3
:108730001401D4F8F421022A45D1CA688B689A4200
:1087400010D28A68CB68D21A8A608A6892B2010015
:10875000200000F0B7FD0023002200212000FFF7D9
:108760000DFF30E04868CA68B0FBF2F302FB13006B
:10877000002817D14868CA68904213D34868D4F8D3
:10878000F81188420ED200220021200000F09AFD4C
:108790000020C4F8F8010023002200212000FFF788
:1087A000EDFE10E0D4F81402C068002808D094F858
:1087B000FC01032804D12000D4F81412C9688847AA
:1087C000200000F0AEFD94F80002012815D1200031
:1087D000FFF714FF002084F800020EE0D4F8140222
:1087E0004069002809D094F8FC01032805D1C9B2DA
:1087F0002000D4F8142252699047002010BD10B513
:1088000004004023002200212000FFF76CFE4020DE
:10881000C4F810014023002280212000FFF763FEEE
:1088200040202062012084F8FC01D4F818020028BE
:1088300006D06168C9B22000D4F81422526890476B
:10884000002010BD01740020704790F8FC1180F8E2
:10885000FD11042180F8FC110020704790F8FD11F3
:1088600080F8FC110020704780B590F8FC110329B6
:1088700008D1D0F81412C969002903D0D0F8141215
:10888000C9698847002002BD10B5DFF89C03006865
:10889000002000F051FD00202A2000F0F1FE00F041
:1088A00005FF2A2803D10220DFF88013C8700020BA
:1088B00000F04AFF0003000BDFF87413884207D171
:1088C000DFF86803C07850F00100DFF86013C8706B
:1088D00001F0A5F800F01EF9DFF858030068C0B2F7
:1088E00000F0CEFE18E0DFF850030078002813D027
:1088F0000220FEF71FF9DFF84403007801F074F856
:10890000DFF83803007800F098F80220FEF712F93B
:108910000020DFF824130870DFF824030078002813
:10892000E1D0022847D080F08780DFF8100300787C
:10893000012826D1DFF80C03046806E0DFF80803FD
:108940000068210001F0BEF804002000BF4909685A
:1089500001F0FAF815D2200000F027FFBC4800789B
:10896000FEF7E8F8122000F0EFFE10F002000228F7
:1089700003D0B14800780028F4D0AF48007801282F
:10898000DCD1AD480078002814D0AD48007801282B
:1089900010D10220FEF7CEF8A848007801F024F8A4
:1089A000A648007800F049F80220FEF7C3F800203E
:1089B000A1490870B0E7A148007801283BD101F037
:1089C000D5F801F043F95FF09D4101F057F904003B
:1089D0009E4800689B49096801F0CEF9210001F02A
:1089E0003FFA9849096801F06DF800F0DEFE1220A8
:1089F00000F0AAFE10F00200022803D08E48007892
:108A00000028F4D08C480078012814D18C480078D4
:108A1000022810D10220FEF78DF88848007800F077
:108A2000E3FF8648007800F008F80220FEF782F89D
:108A30000020814908706FE76EE780B5C0B200285A
:108A400006D100224FF400718248FEF71EFB05E0BC
:108A500001224FF400717F48FEF717FB01BD10B5EE
:108A600088B001207849096800917B4C0694012167
:108A7000079101E001F0B9FAC0B20028FAD102A9C9
:108A800004A801F039FB7548D0E900232100022039
:108A900001F052FA674802680023211D022001F00C
:108AA0004BFA66480278002314F10801022001F015
:108AB00043FA6448D0E9002314F10C01022001F0CC
:108AC0003BFA6248D0E9002314F11001022001F0C2
:108AD00033FA5D48D0E9002314F11401022001F0BB
:108AE0002BFA5B480278002314F11801022001F0F0
:108AF00023FA53480278002314F11C01022001F0EC
:108B00001BFA012001E001F07EFAC0B20028FAD180
:108B100008B010BD80B550480168504A11604168E6
:108B2000444A11608168454A1170C168454A116024
:108B30000169464A11604169434A11608169444AAA
:108B40001170C0693E4908703C480078022802DB79
:108B500000203A49087041480068414900F0F4FF9C
:108B60000AD33E4800683F4901F04AFB04D93B481C
:108B7000006810F1010F05D10020304908703A4813
:108B8000364908602B480068402808D3002029494E
:108B90000860002029490870334830490860294896
:108BA00000682F4900F0D0FF0AD3264800682D49FD
:108BB00001F026FB04D92348006810F1010F02D10F
:108BC0002A482049086021480068254900F0BCFF78
:108BD0000AD31E480068234901F012FB04D91B4840
:108BE000006810F1010F02D12148184908601648A9
:108BF0000068204900F0A8FF0AD3134800681E4906
:108C000001F0FEFA04D91048006810F1010F03D1F9
:108C10005FF07C500C49086009480078032802DBAB
:108C200000200749087001BDFCFB0008E412002089
:108C300075790A00EC13002092010020F413002043
:108C4000F51300200C00002014000020100000206C
:108C500093010020000801400000010808000020E6
:108C60000000C8410180BB450000FA4400007A447E
:108C700000807C44CDCCCC3DCDCCC742FEE710B4C7
:108C8000002489B20C0607D589B211F07F0110EBE0
:108C9000411010F1280404E089B210EB411010F5E6
:108CA000027492B2002A03D10020A072A38004E0D3
:108CB0000120A072E380180C2081002010BC7047B6
:108CC00010B500244A78002A18D0012A1CD0032AA3
:108CD00017D0052A09D0062A04D0082A0BD0092A61
:108CE00006D014E000F0EBF813E000F092F910E089
:108CF00000F0BBF90DE000F027FA0AE000F042FABC
:108D000007E000F058FA04E000F066FA01E000F035
:108D100091FA2000C0B210BD70B504000D0000260D
:108D200094F8FC01032817D1287902280FDA2900CA
:108D30002000D4F8142292689047E88800280AD1CD
:108D4000F6B2002E07D1200000F0E0FA03E029007F
:108D5000200000F06FFA03E02900200000F06AFA1A
:108D6000002070BD70B505000E000024B188307879
:108D700010F06000202807D131002800D5F8142217
:108D800092689047002099E0707800285DD0012813
:108D900030D0032840F0908095F8FC01022802D0E2
:108DA00003280BD021E0C9B2002906D0C9B280291E
:108DB00003D0C9B22800FFF7ABFB1AE07088002887
:108DC00009D1C9B2002906D0C9B2802903D0C9B2DD
:108DD0002800FFF79DFB31002800D5F81422926887
:108DE0009047280000F092FA03E03100280000F0DC
:108DF00021FA61E095F8FC01022802D003280BD08B
:108E00001EE0C9B2002906D0C9B2802903D0C9B278
:108E10002800FFF77DFB17E0708800280FD17F2026
:108E2000014209D0C9B22800FFF77AFB31002800BF
:108E3000D5F8142292689047280000F067FA03E002
:108E40003100280000F0F6F936E095F8FC01022820
:108E500002D0032808D02AE07F20014203D0C9B203
:108E60002800FFF755FB26E0C9B2080607D5C9B2AE
:108E700011F07F0015EB001010F1140606E0C9B2E6
:108E800011F07F0015EB001010F58276C9B22800B2
:108E9000FFF74EFB002802D00120306001E00020E7
:108EA000306002223100280000F0FCF903E03100BC
:108EB000280000F0BFF9FFE72000C0B270BD38B550
:108EC00004000D00688880B2000AC0B2012808D0F2
:108ED00002281FD0032830D006286DD0072879D06B
:108EE00088E06946207CD4F8102212689047BDF8CB
:108EF0000010002900F08C80E988002900F08880AB
:108F0000BDF80010EA88914279D2BDF80010ADF8A2
:108F1000001077E0207C002807D16846D4F81412AE
:108F2000896A88470221417006E06846D4F8141225
:108F3000C96A884702214170D9E7A878002808D07B
:108F4000022814D00CD304281FD017D3052823D00F
:108F500029E06946207CD4F81022526890472AE024
:108F60006946207CD4F810229268904723E0694635
:108F7000207CD4F81022D26890471CE06946207CFF
:108F8000D4F810221269904715E06946207CD4F885
:108F90001022526990470EE06946207CD4F81022D6
:108FA0009269904707E06A466988C9B22000D4F800
:108FB00014329B6B98479AE7207C002805D16846BD
:108FC000D4F81412496B884791E72900200000F07B
:108FD00031F91DE0207C002807D16846D4F814122E
:108FE000096B88470721417081E72900200000F0C4
:108FF00021F90DE02900200000F01CF908E0E988C3
:10900000ADF80010BDF800200100200000F04AF982
:1090100031BD38B504008888002822D1C8880028CE
:109020001FD1887810F07F0594F8FC01032803D144
:10903000200000F0FFF817E084F8FE512900C9B2C3
:109040002000FFF78AFA200000F060F9EDB2002D51
:1090500003D0022084F8FC0106E0012084F8FC0122
:1090600002E0200000F0E6F831BD38B504000D0044
:1090700068883449087033480078022804DB2900E6
:10908000200000F0D7F85CE094F8FC01022802D040
:1090900003281ED051E02B480078002815D029481D
:1090A00000786060032084F8FC01264801782000E5
:1090B000FFF7A6FA022804D12900200000F0BAF830
:1090C0003FE0200000F022F902E0200000F01EF94D
:1090D00037E01C48007800280ED1022084F8FC01FB
:1090E000184800786060174801782000FFF799FA67
:1090F000200000F00BF91FE01248007861688842F8
:1091000017D06168C9B22000FFF78BFA0D480078CC
:1091100060600C4801782000FFF772FA022804D141
:109120002900200000F086F80BE0200000F0EEF8A7
:1091300002E0200000F0EAF803E02900200000F03F
:1091400079F831BDF713002080B5CA88012A02D012
:1091500000F070F815E090F8FC21022A02D0032AF2
:1091600008D00CE000218160012210F1080100F01C
:1091700099F806E00122011D00F094F801E000F0EA
:1091800059F801BD80B590F8FC21921E012A0FD834
:109190000121C160D0F80412002903D0C16851F048
:1091A0000201C160022210F10C0100F07BF801E025
:1091B00000F040F801BD10B50400488801280AD12C
:1091C0000120C4F804022000D4F8142292689047C9
:1091D000200000F09BF810BD10B5040094F8FC01CD
:1091E000801E01280ED8488801280AD10020C4F822
:1091F00004022000D4F8142292689047200000F066
:1092000085F802E0200000F015F810BD0A78027021
:109210004A7842708A78CB7812EB032242800A792E
:109220004B7912EB032282808A79C97912EB0121F2
:10923000C180704710B5040080212000FFF768F955
:1092400000212000FFF764F910BDF8B504000D00FF
:1092500017000026002C1AD0200000F019F840005A
:10926000801C38803888F6B27055761C0320F6B220
:109270007055761C08E02078F6B27055641C761C98
:109280000020F6B27055761C20780028F3D1F1BD8D
:10929000002101E0491C401C0278002AFAD1080094
:1092A000C0B2704780B50223C0F8F43192B2826137
:1092B00092B2C26113009BB20A000021FFF755F978
:1092C000002002BD80B513009BB20A000021FFF709
:1092D0004CF9002002BD80B50323C0F8F43192B2EE
:1092E000C0F8082192B2C0F80C2113009BB20A000A
:1092F0000021FFF743F9002002BD80B513009BB2A7
:109300000A000021FFF73AF9002002BD80B50421D0
:10931000C0F8F411002300220021FFF726F90020F5
:1093200002BD80B50521C0F8F41100230022002100
:10933000FFF724F9002002BD80B5FDF7CFFB00F058
:1093400014F800F0ADF800F068F900F02CF900F026
:1093500069FF00F047F800F078F800F0EBF800F053
:1093600036F9B74800F0ABFF01BD00B593B001205E
:1093700009905FF480300A9000200B90022010903A
:109380005FF4803011905FF4E010129009A8FCF7B0
:10939000ADFE0F20049002200590002006904FF4AF
:1093A0008060079000200890022104A8FDF713FABE
:1093B0001020009000200390684600F097FFFDF712
:1093C0005AFB4FF47A71B0FBF1F0FDF7B9FC0420C1
:1093D000FDF7BAFC002200215FF0FF30FDF79AFC98
:1093E00013B000BD80B59748974908604FF482706C
:1093F0009549486000209449886000209249C860DF
:1094000000209149086100208F4948614FF40070A5
:109410008D49886110208C49C86100208A49086202
:109420000020894948620020874988620A208649CD
:10943000C862854801F084F883480068006850F0ED
:10944000400081490968086001BD80B57F488049B6
:1094500008604FF482707E49486000207C49886033
:1094600000207B49C86000207949086100207849C4
:1094700048614FF400707649886110207449C861D2
:109480000020734908620020714948620020704939
:1094900088620A206E49C8626D4801F051F801BD2A
:1094A00000B585B06B48006850F02000694908603D
:1094B0006848006810F02000009000986548006837
:1094C00050F00400634908606248006810F004002E
:1094D000009000985F48006850F008005D490860FF
:1094E0005C48006810F008000090009800224FF4DB
:1094F00004715948FDF7C9FD00224FF488515748BF
:10950000FDF7C3FD4FF4047001900120029002208A
:10951000049001A95048FDF7DDFC4FF488500190FC
:10952000012002900220049001A94C48FDF7D2FCD2
:1095300005B000BD80B54A48006842F21071B0FB2A
:10954000F1F0401E474908604748006850F00200AB
:10955000454908604448006810F0020000900098F7
:1095600042484349086041F287304149C8603D485C
:1095700000683F49486000203D49086100203C499F
:10958000886000203A494861394801F023F838489A
:1095900001F03DF8002203211D20FDF7BBFB1D203B
:1095A000FDF7C9FB01BD80B500224FF480712B4847
:1095B000FDF76BFD6420FDF7BDFA01224FF48071C9
:1095C0002648FDF762FD6420FDF7B4FA01BD80B5C1
:1095D0002848294908605FF0FF302749486026483D
:1095E00001F018F92048006850F080501E490860CA
:1095F0001D48006810F08050009000981A480068DC
:1096000050F00060184908601748006810F00060CA
:109610000090009801F0C6F901BD80B517480849CF
:1096200008600320064948604FF47A700449886056
:10963000034800F011FE002801D0FFF71FFB01BD19
:10964000D413002000300140DC110020003800401D
:10965000341200201810024000080140000C0140A4
:1096600018000020E81300201C10024000040040F5
:109670006413002000280040C01300200030004088
:1096800080B58DF800000A23012269460D4801F0DB
:1096900095F901224FF480510B48FDF7F6FC0022AA
:1096A0004FF480510848FDF7F0FC01BD80B50A2356
:1096B00001226946034801F065FA9DF80000C0B236
:1096C000800802BD34120020000C014080B5002249
:1096D000DFF8B0331A60DFF8AC23126852EA40605A
:1096E000DFF8A0231060DFF89C03006850EA410017
:1096F000DFF890130860DFF88C030068DFF884134C
:109700000968090211F47F0151EA1060DFF874134F
:109710000968090A11F47F410843DA49096850EAE7
:109720000160D849086001221021D748FDF7ADFC3F
:109730000A230422D349D54801F040F90022102120
:10974000D148FDF7A2FC01BD80B5C0B2400050F089
:109750008000CC49086001221021CB48FDF795FC20
:10976000402000900423C74AC649C84801F02BFB9B
:1097700000221021C448FDF788FCC2480068C14996
:109780000968090211F47F0151EA1060BD490968B6
:10979000090A11F47F410843BA49096850EA016097
:1097A000B8490860B748006802BDF8B50600012452
:1097B0000025002700203000B54900F021FD69D8C0
:1097C0003000B44900F0C0F964D2022400E0A41CC7
:1097D000200000F03BFA310000F042FBAD4900F000
:1097E0000FFDF4D80600AC480068310000F038FBEB
:1097F000AA49096800F042FA01F002FD0500A648F6
:109800000068310000F02CFBA449096800F036FA2A
:109810000600280000F01AFA0100300000F0ACFA4F
:109820009F4900F01DFB01F00DFD00229D4B01F052
:1098300031FD01F0A3FD07009748006801F0E0FC4E
:10984000C0B201000220FFF741FF40F69801052059
:10985000FFF73CFF042C08DAE00140F4604151F0CE
:1098600010010520FFF732FF07E0E00140F4C0419E
:1098700051F010010520FFF729FF00210520FFF717
:1098800025FF39000420FFF721FF29000320FFF7FF
:109890001DFF002630007F4900F0B2FC4DD830009B
:1098A000814900F051F948D27B480068310000F04E
:1098B000D7FA7A49096800F0E1F901F0A1FC050046
:1098C00075480068310000F0CBFA7449096800F06F
:1098D000D5F90400280000F0B9F90100200000F0DB
:1098E0004BFA6F4900F0BCFA01F0ACFC00226D4B62
:1098F00001F0D0FC01F042FD07006748006801F06C
:109900007FFCC0B201000220FFF7E0FE42F69801A2
:109910000520FFF7DBFE4EF290010520FFF7D6FE93
:1099200000210520FFF7D2FE39000420FFF7CEFE0C
:1099300029000320FFF7CAFE002630005A4900F034
:109940005FFC50D83000594900F0FEF84BD230008F
:109950005FF0804100F092F906004F480068310046
:1099600000F07EFA4D49096800F088F901F048FCE2
:10997000050049480068310000F072FA474909685B
:1099800000F07CF90400280000F060F901002000DC
:1099900000F0F2F9424900F063FA01F053FC0022B2
:1099A000404B01F077FC01F0E9FC07003A48006801
:1099B00001F026FCC0B201000220FFF787FE18214B
:1099C0000520FFF783FE90210520FFF77FFE002191
:1099D0000520FFF77BFE39000420FFF777FE290002
:1099E0000320FFF773FEF1BD80B5C0B2002808D197
:1099F00008210520FFF76AFE00210520FFF766FE1B
:109A00000CE040F688710520FFF760FE002105207C
:109A1000FFF75CFE26480068FFF7C7FE01BD80B572
:109A200024490620FFF752FE40F24D110720FFF7B0
:109A30004DFE21490820FFF749FE20490920FFF784
:109A400045FE42F246010A20FFF740FE1C490B206A
:109A5000FFF73CFE00210C20FFF738FE01210F200C
:109A6000FFF734FE41F228610520FFF72FFE46F292
:109A7000A0010520FFF72AFE00210520FFF726FEA2
:109A800001BD0000E413002000080140DC110020AB
:109A90000000C8410180BB440400002000000020F9
:109AA000FFFF7F4B0000E03F01803B450180BB454D
:109AB000080000204A0B2000FFBEC100FF3F150038
:109AC00061C0070090EA010F44BF81F0004100F03F
:109AD0005BB900BF421A3CBF801A89184FF0004C96
:109AE000C0F3C752FF2A24D0C1F3C75313B3D21A0D
:109AF000D2F1190327DD4CEA01214CFA03F321EAE4
:109B00000303D140C20D4CEA0020401834BF20EAC4
:109B10000C004CEA5000D20553EA006373EB0C0CC6
:109B200052EB1020420012F1807F38BF7047C00D09
:109B3000C0057047490212BF9A4200EB5120F8E776
:109B4000D2F11703D9D570474FF0807C1CEB400F42
:109B500094BF1CEB410F05E040EA010C5FEA4C0C9E
:109B600001D28842704718BF81427047F8B5344F20
:109B7000384601F029FC0446381D01F025FC054655
:109B800007F1080001F020FC064607F10C0001F087
:109B90001BFC23782B492C4A002B40D12B6802FB5D
:109BA00003132B60082702FB03132B6002FB031334
:109BB0002B6002FB03132B6002FB03132B6002FBE1
:109BC00003132B6002FB03132B6002FB03132B60B8
:109BD0000346D5F800C002FB0C1CC5F800C043F8D2
:109BE00004CB7F1ED5F800C002FB0C1CC5F800C0DA
:109BF00043F804CBD5F800C002FB0C1CC5F800C02C
:109C000043F804CBD5F800C002FB0C1CC5F800C01B
:109C100043F804CBDDD1C36F3360012323702B687D
:109C200002FB03112960317801F01F0150F8212057
:109C300032602A6840F82120306880008008F2BD38
:109C4000040100205FF36E3C0D661900002840F10E
:109C50000780F446404200F003F850F000406047AF
:109C60000AD0B0FA80F18840D1F19D01C905020601
:109C700072F1004241EB10207047000010B5FF2345
:109C800013EAD0541DBF13EAD1529C429A4239E0E4
:109C9000A41ADA0780EA0103134042EA012142EAEA
:109CA0000020421A3CBF641E01EB4202090AB2FBCB
:109CB000F1FE01FB1E221202B2FBF1F001FB1022A9
:109CC0006EF30F201202B2FBF1FE4EEA00207F3449
:109CD00006DDFE2C24DA53EA500050EBC45010BDD0
:109CE000D4F1020401FB1E2240F08071192C1DDC0E
:109CF00021FA04F0C4F12004A140114371F10042A3
:109D0000584110BD9C421ABF03EAD1529A420FE05B
:109D100080EA010E0EF00043400004D0490016D145
:109D200043F0FF4010BD490008BFD343180010BDE9
:109D30009C4205D1D21AF7D001F00041484010BD35
:109D40004A0212BF0846484000F0004010BD4AB920
:109D50000902B1FA81F2914044B1A418C00140F067
:109D600000409EE7C90141F0004152420002B0FAB2
:109D700080F4A040141B94E790EA010F44BF81F0E7
:109D80000041FFF7A7BE00BF431A4FF000423EBF9D
:109D90005340C01AC91800BFD3095FEAD05C13EB67
:109DA000400F34BFB3EB410F40E07CEBD1530CD3F9
:109DB00042EA012122D8D1EB402009D3400A28BF32
:109DC0005FEA500140EBCC507047401A15D040027A
:109DD000B0FA80F2521C9040400A4FEA3C23B3EBA9
:109DE000026384BF00EB730007E040F400001A1622
:109DF000DB07C2F10102D04018437047182BFCDC8E
:109E000031FA03F202FA03F3591A38BF42F00102A1
:109E1000D2EB40203CBF4000ACF1010C5FEACC5CCF
:109E2000C20572F100414CEB5020704713EB400F1C
:109E30000FD24B0009D0ACEBD153022B03DB49020C
:109E4000172BDDDD70479143401A4300D5D1002028
:109E5000704713EB410FD0D36FF000007047000044
:109E6000FF2212EAD05C1DBF12EAD15394459342FF
:109E70002BE09C44D30780EA01021A4043EA002009
:109E800043EA0121A1FB0030410038BF40007CF1D2
:109E90007F010BDBFE294ADA5B0842EAC15153EA33
:109EA000006373F1004C51EB10207047D1F1080CA6
:109EB000DCF120012FDB5B0810FA01F10B4373F199
:109EC000004120FA0CF05041704794451CBF02EA53
:109ED000D153934280EA010202F000421DD04000BB
:109EE00019D0490017D05BB9634514D00902B1FA03
:109EF00081F39940BCEB030CC00140F00040C1E786
:109F00000002B0FA80FC10FA0CF0B3EB0C0CC901A3
:109F100041F00041B6E71000704740000AD0490008
:109F200008D010F1807F94BF11F1807F02E042F0F1
:109F3000FF407047D04370472DE9F84381460E003B
:109F400014001D0001205FF000080027DFF88C01DD
:109F5000007E012801D1022045E00120DFF87C11BC
:109F600008764CF2503000F061F8C0B2002835D1CC
:109F7000B9F1010F01D1012705E0B9F1020F01D1BB
:109F8000022700E004275FF0000801E018F1010853
:109F90005FFA88F8FFB2B84520D2200029005FFAA6
:109FA00088F85FEA081201F011FA02000B001100B4
:109FB00089B25FFA88F816EB480000F02CF84CF2F2
:109FC000503000F033F8DFF81811096849084900EB
:109FD000DFF80C211160C0B20028D7D00021DFF8D3
:109FE000FC201176C0B2BDE8F2833D48006800064F
:109FF00007D53D483D4908603D483C490860002080
:10A0000000E0012070473648006850F08000344975
:10A010000860002070470022304BDA61304A126835
:10A0200052F001022E4B1A600180704738B50400CF
:10A03000FCF77DFD05002B480068C0070BD514F127
:10A04000010FF8D0002C04D0FCF771FD401B8442B6
:10A05000F1D2032017E023480068800602D52020B3
:10A06000204908601F480068C00607D421480068DE
:10A07000C00703D41B480068400703D500F004F86C
:10A08000012000E0002032BD16480068C00605D55A
:10A090001248C06950F002001049C86111480068B8
:10A0A000400705D50D48C06950F001000B49C86153
:10A0B00010480068C0070BD50848C06950F004007C
:10A0C0000649C8610B48006840084000094908601B
:10A0D000142004490860704700000000A01300200D
:10A0E000102002400C20024023016745042002405A
:10A0F000AB89EFCD1C200240F8B504000D0001260D
:10A100000027DFF8F000007E012801D102204CE09A
:10A110000120DFF8E01008762068022816D14CF202
:10A120005030FFF783FF002839D1012000F03EF8BE
:10A130004CF25030FFF77AFF0600DFF8BC000068F1
:10A1400030F00400DFF8B010086028E04CF2503026
:10A15000FFF76CFF002822D15FF0FF302860A7686E
:10A1600001E017F58067E0684FF48061A26801FBA9
:10A170000020874213D2380000F029F84CF250300A
:10A18000FFF754FF0600DFF87000006830F00200AF
:10A19000DFF864100860F6B2002EE2D02F600020D5
:10A1A000DFF8501008763000C0B2F2BD0020DFF8B2
:10A1B0004410C8611048006850F004000E4908605F
:10A1C0000D48006850F040000B49086070470021BE
:10A1D000084AD1610849096851F00201064A116034
:10A1E000064908600448006850F0400002490860D1
:10A1F00070470000A01300201020024014200240ED
:10A200004FF0807C1CEB400F94BF1CEB410F05E02E
:10A2100040EA010C5FEA4C0C01D28142704718BF42
:10A220008842704780B5002207490848FEF7BEF90A
:10A2300007490648FEF7D2F90649044801F0DAF961
:10A240000248FEF7D6F901BDD0000020B80D00206D
:10A25000500000204000002010B50400002C01D167
:10A2600001202AE02068C068C00705D52068C068C2
:10A27000800701D5012020E0607B002804D1002068
:10A280002073200000F01AF80220607345F2555048
:10A290002168086020684068C008C0006168084301
:10A2A0002168486020688068000B0003A1680843AB
:10A2B0002168886001206073002010BD7047017B19
:10A2C000012901D1022010E0012101730221417313
:10A2D0004CF6CC41026811604AF6AA21026811606E
:10A2E00001214173002101730020704738B504003B
:10A2F000002500202078C00773D58648006850F0FC
:10A300008050844908608348006810F080500090B5
:10A3100000988148006850F480707F490860FCF71D
:10A3200006FC05007C480068C00506D4FCF7FFFB6E
:10A33000401B6528F6D303206AE07848006810F4D3
:10A340004070002845D0616811F44071884240D0C7
:10A350007248006830F4407001214FF40042B2FAB4
:10A3600082F26F4B43F8221000214FF40042B2FA00
:10A3700082F26B4B43F8221068490860C00728D569
:10A38000FCF7D5FB05005FF08040B0FA80F05FF08D
:10A390008040B0FA80F050F04000C0B24009C0B236
:10A3A000022802D15D48006801E05E4800685FF065
:10A3B0008041B1FA81F111F01F01C840C00708D4F3
:10A3C000FCF7B5FB401B41F289318842DBD3032007
:10A3D0001EE05248006830F44070616808434F49FD
:10A3E00008602078800707D54F48006830F4404067
:10A3F000A16808434C4908602078C00607D54A4840
:10A40000006830F48000E168084347490860002094
:10A4100032BD30B585B0040001A844491022FCF7D4
:10A42000ABFB43480088ADF8000000220020002567
:10A4300000210023012C35D0022C58D0102C66D1DD
:10A44000394A12683B4B1B68DB012AD501A812F47C
:10A4500070134FF47054B4FA84F4E3401B5CD003DF
:10A4600012D5314800686C4610F400304FF4804536
:10A47000B5FA85F5E840055DD00308D52E48B0FB58
:10A48000F5F003FB00F102E02C4800FB03F1264845
:10A490000068400201D5080003E048000321B0FB3A
:10A4A000F1F034E01D48026840F202301040B0F58F
:10A4B000817F02D14FF4004018E012F44070B0F5F3
:10A4C000007F06D117480068800702D549F6404052
:10A4D0000CE012F44070B0F5407F06D115480068DA
:10A4E000800302D54FF2244000E000200FE0FCF78B
:10A4F000C5FA0D49096811F440415FF40032B2FA1F
:10A5000082F2D140491C4900B0FBF1F0FFE705B0F1
:10A5100030BD00001C1002400070004020100240BE
:10A5200000044242241002400410024048BC0008CB
:10A53000728300080010024000127A0000093D00FA
:10A5400010B50400002C01D101203EE094F8510028
:10A55000002802D12000FCF760FC022084F85100A2
:10A560002068006830F04000216808606068A168D9
:10A570000843E16808432169084361690843A16908
:10A5800011F400710843E1690843216A0843A16A94
:10A59000084321680860A069000C10F00400616A9B
:10A5A000084321684860E06A216808612068C06942
:10A5B00030F400602168C861002004490870002060
:10A5C0006065012084F85100002010BDF6130020C2
:10A5D0000120704710B50400002C01D1012014E0C7
:10A5E00094F83900002805D1002084F838002000B4
:10A5F00000F00CF8022084F83900211D206800F0DA
:10A60000D4F8012084F83900002010BD704701689B
:10A61000C96851F001010268D1600168096851F010
:10A620000101006801600020704710B50400206837
:10A63000006980071AD52068C068800716D57FF0AA
:10A64000020021680861012020762068806910F0EE
:10A65000030F03D0200000F0A5F805E0200000F073
:10A66000A0F8200000F09FF8002020762068006904
:10A6700040071AD52068C068400716D57FF004004F
:10A6800021680861022020762068806910F4407FEC
:10A6900003D0200000F086F805E0200000F081F8EB
:10A6A000200000F080F80020207620680069000774
:10A6B0001AD52068C068000716D57FF00800216809
:10A6C0000861042020762068C06910F0030F03D0D1
:10A6D000200000F067F805E0200000F062F820009C
:10A6E00000F061F80020207620680069C0061AD5C5
:10A6F0002068C068C00616D57FF010002168086188
:10A70000082020762068C06910F4407F03D0200024
:10A7100000F048F805E0200000F043F8200000F0C9
:10A7200042F80020207620680069C0070AD520681A
:10A73000C068C00706D57FF00100216808612000CD
:10A7400000F02EF82068006900060AD52068C0686D
:10A75000000606D57FF0800021680861200000F027
:10A7600054FF2068006940060AD52068C06840068A
:10A7700006D57FF0400021680861200000F014F841
:10A780002068006980060AD52068C068800606D562
:10A790007FF0200021680861200000F035FF10BD27
:10A7A0007047704770477047704700220268164B29
:10A7B000984208D0B0F1804F05D0144B984202D097
:10A7C000134B984203D132F070024B681A430E4B80
:10A7D000984208D0B0F1804F05D00C4B984202D07F
:10A7E0000B4B984203D132F44072CB681A4302609B
:10A7F0008A68C2620A688262034A904201D109698A
:10A800000163012141617047002C014000040040B8
:10A810000008004010B504000020002C01D10120E8
:10A8200068E0607C002804D100202074200000F043
:10A8300062F802206074200000F062F8002803D063
:10A8400004206074012055E0200000F077F8002813
:10A8500003D00420607401204CE020684068C008E8
:10A86000C00021684860A068002807D0DFF8880091
:10A87000006840084000DFF880100860DFF87C00C6
:10A88000006830F46070A1680843DFF87010086059
:10A89000606810F1010F01D0606809E00120FFF746
:10A8A000B8FD002803D104206074012022E0401E7E
:10A8B000216889680909090151EA104122689160FB
:10A8C0002168C968090C090480B208432168C8607E
:10A8D000200000F04DF8002803D00420607401200F
:10A8E00008E00020E073012060730120A0730120C4
:10A8F0006074002010BD7047306C00402C6C00402C
:10A9000038B504000025002C01D1012015E0206895
:10A91000406830F0080021684860FCF708F905003D
:10A9200020684068000707D4FCF701F9401BB0F528
:10A930007A7FF5D9032000E0002032BD38B504004D
:10A940000025FCF7F4F8050020684068800607D46D
:10A95000FCF7EDF8401BB0F57A7FF5D9032006E04F
:10A960002068406850F0100021684860002032BD27
:10A9700038B5040000252068406830F010002168D8
:10A980004860FCF7D4F8050020684068800607D4CA
:10A99000FCF7CDF8401BB0F57A7FF5D9032000E035
:10A9A000002032BD01205FF40001B1FA81F1024ABA
:10A9B00042F821007047000000000E4238B5040044
:10A9C0001D0094F85100012840F0DA80002902D0DF
:10A9D00092B2002A01D10120D3E094F8500001285E
:10A9E00001D10220CDE0012084F85000122084F82B
:10A9F0005100002060652163A286E2860020E064A9
:10AA00000020A0640020A0630020A0870020E08731
:10AA1000A06AB0F5005F0BD12068006830F40050E8
:10AA2000216808602068006850F4005021680860C0
:10AA3000A068B0F5004F05D12068006850F4804050
:10AA40002168086020680068400605D42068006816
:10AA500050F0400021680860E068002830D160684C
:10AA6000002802D0E08E012812D1206B411C216306
:10AA700000782168C860E08E401EE08608E0206B08
:10AA8000411C216300782168C860E08E401EE0868A
:10AA9000E08E002809D02B0000220221200000F0C7
:10AAA00037FB0028EBD003206BE0A06AB0F5005F15
:10AAB00038D12068006850F480502168086031E087
:10AAC0006068002802D0E08E012814D1206B008835
:10AAD0002168C860206B801C2063E08E401EE086E9
:10AAE00009E0206B00882168C860206B801C20630F
:10AAF000E08E401EE086E08E002809D02B00002268
:10AB00000221200000F004FB0028EAD0032038E0F6
:10AB1000A06AB0F5005F05D12068006850F480504D
:10AB2000216808602B0000220221200000F0F0FACA
:10AB3000002805D0606D50F010006065032020E013
:10AB40002B0001228021200000F0E2FA002805D02D
:10AB5000606D50F010006065032012E0A0680028CE
:10AB600006D12068C0680090206880680090009836
:10AB7000012084F85100002084F85000002000E0FB
:10AB8000022032BD38B504001D000020ADF80000E1
:10AB900094F85100012840F01481002902D092B2AB
:10ABA000002A01D101200DE194F85000012801D1C3
:10ABB000022007E1012084F85000222084F851008F
:10ABC00000206065A163A287E2870020A0640020C6
:10ABD000E064002020630020A0860020E086A068BA
:10ABE000B0F5004F05D12068006830F4804023683C
:10ABF0001860A06AB0F5005F0BD12068006830F4DF
:10AC00000050236818602068006850F400502368E2
:10AC100018606068B0F5827F0DD1A06800280AD165
:10AC2000002084F85000009513009BB20A00200019
:10AC300000F0C9F8C6E020680068400605D4206826
:10AC4000006850F0400021680860E06800282BD1BF
:10AC500008E0A06B411CA1632168C9680170E08F06
:10AC6000401EE087E08F022809DB2B000022012133
:10AC7000200000F04DFA0028EBD00320A2E0A06AEB
:10AC8000B0F5005F27D12068006850F4805021683B
:10AC9000086020E02068C068A16B0880A06B801C61
:10ACA000A063E08F401EE087E08F022809DB2B00C5
:10ACB00000220121200000F02BFA0028EAD0032016
:10ACC00080E0A06AB0F5005F05D12068006850F40C
:10ACD0008050216808602B0000220121200000F034
:10ACE00017FA002801D003206CE0E068002806D1A4
:10ACF000A06B411CA1632168C968017006E020684F
:10AD0000C068A16B0880A06B801CA063E08F401E10
:10AD1000E087A06AB0F5005F13D12B00002201216B
:10AD2000200000F0F5F9002805D0606D50F0020019
:10AD30006065032046E02068C068ADF80000BDF8FB
:10AD400000006068B0F5827F0DD1A068B0F5004FBB
:10AD500003D0A068B0F5806F05D12068006830F09E
:10AD6000400021680860012084F85100A06AB0F515
:10AD7000005F21D120688068C0061DD52000FFF744
:10AD800027FC012814D1606D50F002006065206836
:10AD9000006830F40050216808602068006850F4B2
:10ADA000005021680860002084F85000012009E06C
:10ADB0007FF0100021688860002084F85000002097
:10ADC00000E0022032BD38B504000020ADF80000DC
:10ADD00094F85100012804D094F85100222840F042
:10ADE0009581002904D0002A02D09BB2002B01D10A
:10ADF00001208CE194F85000012801D1022086E165
:10AE0000012084F8500094F85100012802D132202A
:10AE100084F8510000206065A263A387E387216363
:10AE2000A386E3860020A0640020E064A06AB0F559
:10AE3000005F0BD12068006830F400502168086082
:10AE40002068006850F4005021680860206800689D
:10AE5000400605D42068006850F040002168086072
:10AE6000049DE068B0F5006F40F0878060680028BE
:10AE700006D06068B0F5827F0CD1E08E012809D140
:10AE8000206B00882168C860206B801C2063E08EE6
:10AE9000401EE086E08E002828D1A06AB0F5005F51
:10AEA00005D12068006850F48050216808602B00AC
:10AEB00000220121200000F02BF9002801D00320FE
:10AEC00025E12068C068A16B0880A06B801CA0638E
:10AED000E08F401EE087CEE02068C068A16B08804C
:10AEE000A06B801CA063E08F401EE087E08E0028EE
:10AEF0002AD02B0000220221200000F009F90028AE
:10AF000001D0032003E1206B00882168C860206B1A
:10AF1000801C2063E08E401EE086E08E002809D170
:10AF2000A06AB0F5005F05D12068006850F4805039
:10AF3000216808602B0000220121200000F0E8F8C1
:10AF40000028C9D00320E2E06068002840F0938028
:10AF50002B0000220121200000F0DAF8002801D0A7
:10AF60000320D4E02068C068A16B0880A06B801C1F
:10AF7000A063E08F401EE0877DE06068002806D077
:10AF80006068B0F5827F0BD1E08E012808D1206B7C
:10AF9000411C216300782168C860E08E401EE08675
:10AFA000E08E002824D1A06AB0F5005F05D12068AA
:10AFB000006850F48050216808602B0000220121B5
:10AFC000200000F0A5F8002801D003209FE02068B1
:10AFD000C068A16B0870E08F401EE0874BE0A06B5B
:10AFE000411CA1632168C9680170E08F401EE087A1
:10AFF000E08E002829D02B0000220221200000F042
:10B0000087F8002801D0032081E0206B411C2163D8
:10B0100000782168C860E08E401EE086E08E00283F
:10B0200009D1A06AB0F5005F05D12068006850F42E
:10B030008050216808602B0000220121200000F0D0
:10B0400067F80028CBD0032061E06068002812D1A7
:10B050002B0000220121200000F05AF8002801D026
:10B06000032054E0A06B411CA1632168C9680170F2
:10B07000E08F401EE087A06AB0F5005F13D12B007F
:10B0800000220121200000F043F8002805D0606D67
:10B0900050F002006065032039E02068C068ADF818
:10B0A0000000BDF800002B0001228021200000F0EC
:10B0B0002FF8002805D0606D50F010006065032067
:10B0C00025E0012084F85100A06AB0F5005F18D196
:10B0D00020688068C00614D5606D50F0020060657D
:10B0E0002068006830F4005021680860206800681B
:10B0F00050F4005021680860002084F850000120BE
:10B1000005E0002084F85000002000E0022032BD5D
:10B110002DE9F04104000D0090461E000027FBF7CA
:10B1200006FD07005FFA88F8B8F1000F32D12068F9
:10B1300080682840A84260D016F1010FF7D0002E99
:10B1400004D0FBF7F4FCC01B8642F0D220684068B4
:10B1500030F0E000216848602068006830F040006E
:10B1600021680860A06AB0F5005F0BD12068006814
:10B1700030F40050216808602068006850F40050E6
:10B1800021680860012084F85100002084F85000F4
:10B19000032033E0206880682840A8422DD116F1B2
:10B1A000010FF7D0002E04D0FBF7C1FCC01B864274
:10B1B000F0D22068406830F0E000216848602068E4
:10B1C000006830F0400021680860A06AB0F5005FB8
:10B1D0000BD12068006830F40050216808602068B6
:10B1E000006850F4005021680860012084F8510084
:10B1F000002084F85000032000E00020BDE8F0812A
:10B200004100090E7F3915D4D1F11F0114D440003B
:10B2100007D2C00140F00040C84048BF6FF0004076
:10B220007047C00140F00040C8404CBF4FF00040A4
:10B23000404270470020704700424FF0004058BF26
:10B24000C04370475FF0FF0C1CEAD05114BF61454A
:10B2500006E0C110400721F0E04101F16051704764
:10B2600079B900F0004100020AD0B0FA80FC00FA7F
:10B270000CF001F16051A1EB0C5101EBD021400524
:10B28000704741020CBF40F4E0016FF00001002064
:10B2900070470000F0B44FF0004591EA030C44BF42
:10B2A0006B4000F0B5B900BF841A71EB030603D2FE
:10B2B000001BB141121973414FF4001C1CEB410FEC
:10B2C00034BF7CEB430443E00C0DA4EB1356352E46
:10B2D00050DC45EAC323DB0A45EAC121C912B6F1B5
:10B2E00020050DDD63FA05F6EB4086EA0305124200
:10B2F00018BF45F00105C01851F100010CD213E050
:10B3000062FA06F5F2405540F3415A40B340F3402B
:10B310005A408018594107D349085FEA30005FEA74
:10B32000350528BF45F0010501F58011420875F18A
:10B33000004250F1000041EB0451F0BC4FF4001CFE
:10B340001CEB410F38BF70470020090D09057047FD
:10B350001CEB410F10D252EA43060BD0BCEB410F5D
:10B3600005D80C0DAB43661E342EB5DD02E0AB43B1
:10B3700080185941F0BC7047F0BC7047F446400D4E
:10B3800040EAC120490006D200F00EF8004248BF52
:10B390006FF00040604700F007F84FF0004188422E
:10B3A0008CBF08464042604740F00040490DA1F57F
:10B3B0008061491C05D4D1F11F0154BFC840C0179A
:10B3C00070474FF00000704770470000D2B2203A3B
:10B3D00022BF21FA02F0002170472032D141D04033
:10B3E00048409140D14048407047000070B504008B
:10B3F00000254023032281212000FDF774F840231B
:10B40000032201212000FDF76EF85420FDF7BFF85C
:10B41000C4F81802D4F81802002801D101250EE062
:10B42000D4F81862002086F85000D4F81C02406856
:10B4300080474023320001212000FDF79FF82800BB
:10B44000C0B270BD10B5040081212000FDF758F88E
:10B4500001212000FDF754F8D4F8180200280AD082
:10B46000D4F81C0280688047D4F81802FDF79CF8D5
:10B470000020C4F81802002010BD38B500220024B6
:10B48000D0F818320D7815F06005EDB2002D2ED0F1
:10B49000202D5ED14A78022A16D0032A08D0092A24
:10B4A00018D00A2A0AD00B2A1DD18878186450E0D7
:10B4B000012213F14001FDF7F5FEF8E7488880B25C
:10B4C000000AC0B25864F2E7012213F14401FDF70B
:10B4D000E9FEECE70122DA64CA88D2B292B219001E
:10B4E000FDF7F9FEE3E7FDF7A5FE022032E04D7817
:10B4F000062D04D00A2D24D00B2D28D029E04B880E
:10B500009BB21B0A9BB2222B09D1CA88232A01DBDA
:10B51000222200E0CA88D0F81C120C680CE04B888C
:10B520009BB21B0A9BB2212B06D12F4CCA880A2A38
:10B5300001DB092200E0CA8892B22100FDF7B2FEC9
:10B5400007E0012213F14801FDF7ACFE01E0887825
:10B550009864002032BD10B5D0F8183290F8FC4144
:10B56000032C0CD193F85040002C08D1012483F80F
:10B57000504013009BB20A008121FCF7F6FF002027
:10B5800010BD29210180194870470021D0F8180208
:10B5900080F850100020704738B50400D4F81852D5
:10B5A00069782878D4F81C22D268904740232A0072
:10B5B00001212000FCF7E2FF002032BD10B502009F
:10B5C000D2F81842E06C012807D161782078D2F8CF
:10B5D0001C22D26890470020E064002010BD0A21A0
:10B5E0000180034870470000B80000208C00002054
:10B5F000C40000200222002902D0C0F81C12002240
:10B600001000C0B270470000704770470000000093
:10B61000841A71EB030604D26E40001BB14112196B
:10B6200073414FF4001C1CEB410F34BF7CEB43060D
:10B6300084E00C0DA4EB1356362E7DDC012E43DC8A
:10B6400045EAC32343EA525312BFD20292025B0877
:10B65000240545EAC12141EA5051D2EBC02099416D
:10B6600025D407D1B0FA80F610FA06F164D0002094
:10B67000203608E0B1FA81F6B140C6F1200220FA86
:10B6800002F21143B0404FEAF474B4EB465434F084
:10B6900001064FEA74040AD8D6F50016760D04F0B8
:10B6A0000044F04061FA06F25040F1404840C00AC0
:10B6B00040EA415021F0004128BF5FEA500550F1B7
:10B6C000000044EBD12137E045EAC323DB0A45EA19
:10B6D000C121C90AB6F120050EDD42EA0242120C70
:10B6E000C5F1200603FA06F6EB4042EA06056D4274
:10B6F000984161F100010DE062FA06F5F240554013
:10B7000063FA06FC82EA0C02F3405A406D42904113
:10B7100061EB030111F4801F05D1641E620502D0A4
:10B720006D004041494121F48011430875F1004307
:10B7300050F1000041EB0451F0BC70471CEB410F8D
:10B7400015D223F0004352EA43060BD04FEA4C0CCB
:10B75000BCEB410F04D80C0D661E342EB7DDEBE7B1
:10B76000801A994150EA410608BF0021E4E708BF6A
:10B770001CEB430F28BF6FF00001DDE77047FEE7C9
:10B78000FEE7FEE7FEE770477047704780B5FBF7BE
:10B79000C8F9FBF7F9FA01BD80B52E48FCF715FA98
:10B7A00001BD80B52B48FCF710FA01BD10B52A4841
:10B7B000FEF73BFF4AF6AA20284909680860284896
:10B7C000007828490870284800782649487027489A
:10B7D00000782449887004222549264C2000FBF774
:10B7E000BBF904222449254C2000FBF7B5F9244875
:10B7F00000781C49087304222249234C2000FBF7DF
:10B80000ABF904222149224C2000FBF7A5F90422C0
:10B810002049214C2000FBF79FF904221F49204CAE
:10B820002000FBF799F904221E491F4C2000FBF76A
:10B8300093F91E4800780B4981F8240040220949F9
:10B840001B48FFF788FE10BD5FF48020194908608F
:10B85000704700009809002064130020D4130020D2
:10B8600090010020E412002091010020F513002037
:10B8700008000020E8120020EC130020EC12002049
:10B88000F413002000000020F41200200400002027
:10B89000F81200200C000020FC12002010000020F4
:10B8A0000013002014000020041300209301002046
:10B8B000B80D00201404014000207047002070479C
:10B8C00010B53648D0F81802002105E0C9B20A5C6C
:10B8D000334BC9B2CA54491CC9B24029F6DB3048BF
:10B8E0000078002858D02E48007801280CD0022873
:10B8F00014D003281CD0042826D0052827D00628D9
:10B900002DD0FF2842D047E004222649264C2000B3
:10B91000FBF722F90120254908703DE02048007915
:10B920002349086022480068C0B2FDF7A9FE33E051
:10B930001B4800791F49087001201C4908701848ED
:10B9400000791D49087127E0FDF789F824E01448C3
:10B9500000791A4908700120144908701CE004227B
:10B960001049174C2000FBF7F7F804221549164C34
:10B970002000FBF7F1F804221449154C2000FBF7D6
:10B98000EBF80748407B1349087005E001220121CC
:10B99000114800F023F8FEE7002010BDB80D00208C
:10B9A000241300202513002008000020920100200D
:10B9B000EC130020F4130020E4120020F513002003
:10B9C0000C00002029130020100000202D1300205F
:10B9D0001400002093010020C01300200020034821
:10B9E00010EB810091B2016070470000006C0040D4
:10B9F0001220088028487047042008802748704794
:10BA000080B5C0B2002805D10A0025492548FDF7B8
:10BA10001CFC04E00A0022492248FDF716FC2048DD
:10BA200002BD80B50A001E491F48FDF70EFC1C48E8
:10BA300002BD80B5C0B2002805D10A0018491B48D4
:10BA4000FDF703FC04E00A0015491848FDF7FDFB6B
:10BA5000134802BD80B5C0B2002805D10A001049C4
:10BA60001348FDF7F2FB04E00A000D491048FDF70A
:10BA7000ECFB0B4802BD80B5C0B2002805D10A001E
:10BA800007490C48FDF7E1FB04E00A0004490948B6
:10BA9000FDF7DBFB024802BDEC00002000010020A6
:10BAA000DC0F0020A8BB00089CBC000868BC000894
:10BAB00024BC00080CBC00081248006850F00100CB
:10BAC0001049086010480068104908400E49086095
:10BAD0000C4800680E4908400A4908600948006897
